{
  "_format": "hh-sol-artifact-1",
  "contractName": "Auction",
  "sourceName": "src/contracts/Auction.sol",
  "abi": [
    {
      "inputs": [
        {
          "internalType": "uint256",
          "name": "_royaltyFee",
          "type": "uint256"
        }
      ],
      "stateMutability": "nonpayable",
      "type": "constructor"
    },
    {
      "anonymous": false,
      "inputs": [
        {
          "indexed": true,
          "internalType": "address",
          "name": "owner",
          "type": "address"
        },
        {
          "indexed": true,
          "internalType": "address",
          "name": "approved",
          "type": "address"
        },
        {
          "indexed": true,
          "internalType": "uint256",
          "name": "tokenId",
          "type": "uint256"
        }
      ],
      "name": "Approval",
      "type": "event"
    },
    {
      "anonymous": false,
      "inputs": [
        {
          "indexed": true,
          "internalType": "address",
          "name": "owner",
          "type": "address"
        },
        {
          "indexed": true,
          "internalType": "address",
          "name": "operator",
          "type": "address"
        },
        {
          "indexed": false,
          "internalType": "bool",
          "name": "approved",
          "type": "bool"
        }
      ],
      "name": "ApprovalForAll",
      "type": "event"
    },
    {
      "anonymous": false,
      "inputs": [
        {
          "indexed": true,
          "internalType": "uint256",
          "name": "tokenId",
          "type": "uint256"
        },
        {
          "indexed": false,
          "internalType": "address",
          "name": "seller",
          "type": "address"
        },
        {
          "indexed": false,
          "internalType": "address",
          "name": "owner",
          "type": "address"
        },
        {
          "indexed": false,
          "internalType": "uint256",
          "name": "price",
          "type": "uint256"
        },
        {
          "indexed": false,
          "internalType": "bool",
          "name": "sold",
          "type": "bool"
        }
      ],
      "name": "AuctionItemCreated",
      "type": "event"
    },
    {
      "anonymous": false,
      "inputs": [
        {
          "indexed": true,
          "internalType": "address",
          "name": "from",
          "type": "address"
        },
        {
          "indexed": true,
          "internalType": "address",
          "name": "to",
          "type": "address"
        },
        {
          "indexed": true,
          "internalType": "uint256",
          "name": "tokenId",
          "type": "uint256"
        }
      ],
      "name": "Transfer",
      "type": "event"
    },
    {
      "inputs": [
        {
          "internalType": "address",
          "name": "to",
          "type": "address"
        },
        {
          "internalType": "uint256",
          "name": "tokenId",
          "type": "uint256"
        }
      ],
      "name": "approve",
      "outputs": [],
      "stateMutability": "nonpayable",
      "type": "function"
    },
    {
      "inputs": [
        {
          "internalType": "address",
          "name": "owner",
          "type": "address"
        }
      ],
      "name": "balanceOf",
      "outputs": [
        {
          "internalType": "uint256",
          "name": "",
          "type": "uint256"
        }
      ],
      "stateMutability": "view",
      "type": "function"
    },
    {
      "inputs": [
        {
          "internalType": "uint256",
          "name": "tokenId",
          "type": "uint256"
        }
      ],
      "name": "buyAuctionedItem",
      "outputs": [],
      "stateMutability": "payable",
      "type": "function"
    },
    {
      "inputs": [
        {
          "internalType": "uint256",
          "name": "tokenId",
          "type": "uint256"
        },
        {
          "internalType": "uint256",
          "name": "price",
          "type": "uint256"
        }
      ],
      "name": "changePrice",
      "outputs": [],
      "stateMutability": "nonpayable",
      "type": "function"
    },
    {
      "inputs": [
        {
          "internalType": "uint256",
          "name": "tokenId",
          "type": "uint256"
        },
        {
          "internalType": "uint256",
          "name": "bid",
          "type": "uint256"
        }
      ],
      "name": "claimPrize",
      "outputs": [],
      "stateMutability": "nonpayable",
      "type": "function"
    },
    {
      "inputs": [
        {
          "internalType": "string",
          "name": "name",
          "type": "string"
        },
        {
          "internalType": "string",
          "name": "description",
          "type": "string"
        },
        {
          "internalType": "string",
          "name": "image",
          "type": "string"
        },
        {
          "internalType": "uint256",
          "name": "price",
          "type": "uint256"
        }
      ],
      "name": "createAuction",
      "outputs": [],
      "stateMutability": "payable",
      "type": "function"
    },
    {
      "inputs": [
        {
          "internalType": "uint256",
          "name": "tokenId",
          "type": "uint256"
        }
      ],
      "name": "getApproved",
      "outputs": [
        {
          "internalType": "address",
          "name": "",
          "type": "address"
        }
      ],
      "stateMutability": "view",
      "type": "function"
    },
    {
      "inputs": [
        {
          "internalType": "uint256",
          "name": "id",
          "type": "uint256"
        }
      ],
      "name": "getAuction",
      "outputs": [
        {
          "components": [
            {
              "internalType": "string",
              "name": "name",
              "type": "string"
            },
            {
              "internalType": "string",
              "name": "description",
              "type": "string"
            },
            {
              "internalType": "string",
              "name": "image",
              "type": "string"
            },
            {
              "internalType": "uint256",
              "name": "tokenId",
              "type": "uint256"
            },
            {
              "internalType": "address",
              "name": "seller",
              "type": "address"
            },
            {
              "internalType": "address",
              "name": "owner",
              "type": "address"
            },
            {
              "internalType": "address",
              "name": "winner",
              "type": "address"
            },
            {
              "internalType": "uint256",
              "name": "price",
              "type": "uint256"
            },
            {
              "internalType": "bool",
              "name": "sold",
              "type": "bool"
            },
            {
              "internalType": "bool",
              "name": "live",
              "type": "bool"
            },
            {
              "internalType": "bool",
              "name": "biddable",
              "type": "bool"
            },
            {
              "internalType": "uint256",
              "name": "bids",
              "type": "uint256"
            },
            {
              "internalType": "uint256",
              "name": "duration",
              "type": "uint256"
            }
          ],
          "internalType": "struct Auction.AuctionStruct",
          "name": "",
          "type": "tuple"
        }
      ],
      "stateMutability": "view",
      "type": "function"
    },
    {
      "inputs": [
        {
          "internalType": "uint256",
          "name": "tokenId",
          "type": "uint256"
        }
      ],
      "name": "getBidders",
      "outputs": [
        {
          "components": [
            {
              "internalType": "address",
              "name": "bidder",
              "type": "address"
            },
            {
              "internalType": "uint256",
              "name": "price",
              "type": "uint256"
            },
            {
              "internalType": "uint256",
              "name": "timestamp",
              "type": "uint256"
            },
            {
              "internalType": "bool",
              "name": "refunded",
              "type": "bool"
            },
            {
              "internalType": "bool",
              "name": "won",
              "type": "bool"
            }
          ],
          "internalType": "struct Auction.BidderStruct[]",
          "name": "",
          "type": "tuple[]"
        }
      ],
      "stateMutability": "view",
      "type": "function"
    },
    {
      "inputs": [],
      "name": "getListingPrice",
      "outputs": [
        {
          "internalType": "uint256",
          "name": "",
          "type": "uint256"
        }
      ],
      "stateMutability": "view",
      "type": "function"
    },
    {
      "inputs": [],
      "name": "getLiveAuctions",
      "outputs": [
        {
          "components": [
            {
              "internalType": "string",
              "name": "name",
              "type": "string"
            },
            {
              "internalType": "string",
              "name": "description",
              "type": "string"
            },
            {
              "internalType": "string",
              "name": "image",
              "type": "string"
            },
            {
              "internalType": "uint256",
              "name": "tokenId",
              "type": "uint256"
            },
            {
              "internalType": "address",
              "name": "seller",
              "type": "address"
            },
            {
              "internalType": "address",
              "name": "owner",
              "type": "address"
            },
            {
              "internalType": "address",
              "name": "winner",
              "type": "address"
            },
            {
              "internalType": "uint256",
              "name": "price",
              "type": "uint256"
            },
            {
              "internalType": "bool",
              "name": "sold",
              "type": "bool"
            },
            {
              "internalType": "bool",
              "name": "live",
              "type": "bool"
            },
            {
              "internalType": "bool",
              "name": "biddable",
              "type": "bool"
            },
            {
              "internalType": "uint256",
              "name": "bids",
              "type": "uint256"
            },
            {
              "internalType": "uint256",
              "name": "duration",
              "type": "uint256"
            }
          ],
          "internalType": "struct Auction.AuctionStruct[]",
          "name": "Auctions",
          "type": "tuple[]"
        }
      ],
      "stateMutability": "view",
      "type": "function"
    },
    {
      "inputs": [],
      "name": "getMyAuctions",
      "outputs": [
        {
          "components": [
            {
              "internalType": "string",
              "name": "name",
              "type": "string"
            },
            {
              "internalType": "string",
              "name": "description",
              "type": "string"
            },
            {
              "internalType": "string",
              "name": "image",
              "type": "string"
            },
            {
              "internalType": "uint256",
              "name": "tokenId",
              "type": "uint256"
            },
            {
              "internalType": "address",
              "name": "seller",
              "type": "address"
            },
            {
              "internalType": "address",
              "name": "owner",
              "type": "address"
            },
            {
              "internalType": "address",
              "name": "winner",
              "type": "address"
            },
            {
              "internalType": "uint256",
              "name": "price",
              "type": "uint256"
            },
            {
              "internalType": "bool",
              "name": "sold",
              "type": "bool"
            },
            {
              "internalType": "bool",
              "name": "live",
              "type": "bool"
            },
            {
              "internalType": "bool",
              "name": "biddable",
              "type": "bool"
            },
            {
              "internalType": "uint256",
              "name": "bids",
              "type": "uint256"
            },
            {
              "internalType": "uint256",
              "name": "duration",
              "type": "uint256"
            }
          ],
          "internalType": "struct Auction.AuctionStruct[]",
          "name": "Auctions",
          "type": "tuple[]"
        }
      ],
      "stateMutability": "view",
      "type": "function"
    },
    {
      "inputs": [
        {
          "internalType": "address",
          "name": "owner",
          "type": "address"
        },
        {
          "internalType": "address",
          "name": "operator",
          "type": "address"
        }
      ],
      "name": "isApprovedForAll",
      "outputs": [
        {
          "internalType": "bool",
          "name": "",
          "type": "bool"
        }
      ],
      "stateMutability": "view",
      "type": "function"
    },
    {
      "inputs": [],
      "name": "name",
      "outputs": [
        {
          "internalType": "string",
          "name": "",
          "type": "string"
        }
      ],
      "stateMutability": "view",
      "type": "function"
    },
    {
      "inputs": [
        {
          "internalType": "uint256",
          "name": "tokenId",
          "type": "uint256"
        },
        {
          "internalType": "bool",
          "name": "biddable",
          "type": "bool"
        },
        {
          "internalType": "uint256",
          "name": "sec",
          "type": "uint256"
        },
        {
          "internalType": "uint256",
          "name": "min",
          "type": "uint256"
        },
        {
          "internalType": "uint256",
          "name": "hour",
          "type": "uint256"
        },
        {
          "internalType": "uint256",
          "name": "day",
          "type": "uint256"
        }
      ],
      "name": "offerAuction",
      "outputs": [],
      "stateMutability": "nonpayable",
      "type": "function"
    },
    {
      "inputs": [
        {
          "internalType": "uint256",
          "name": "tokenId",
          "type": "uint256"
        }
      ],
      "name": "ownerOf",
      "outputs": [
        {
          "internalType": "address",
          "name": "",
          "type": "address"
        }
      ],
      "stateMutability": "view",
      "type": "function"
    },
    {
      "inputs": [
        {
          "internalType": "uint256",
          "name": "tokenId",
          "type": "uint256"
        }
      ],
      "name": "placeBid",
      "outputs": [],
      "stateMutability": "payable",
      "type": "function"
    },
    {
      "inputs": [
        {
          "internalType": "address",
          "name": "from",
          "type": "address"
        },
        {
          "internalType": "address",
          "name": "to",
          "type": "address"
        },
        {
          "internalType": "uint256",
          "name": "tokenId",
          "type": "uint256"
        }
      ],
      "name": "safeTransferFrom",
      "outputs": [],
      "stateMutability": "nonpayable",
      "type": "function"
    },
    {
      "inputs": [
        {
          "internalType": "address",
          "name": "from",
          "type": "address"
        },
        {
          "internalType": "address",
          "name": "to",
          "type": "address"
        },
        {
          "internalType": "uint256",
          "name": "tokenId",
          "type": "uint256"
        },
        {
          "internalType": "bytes",
          "name": "data",
          "type": "bytes"
        }
      ],
      "name": "safeTransferFrom",
      "outputs": [],
      "stateMutability": "nonpayable",
      "type": "function"
    },
    {
      "inputs": [
        {
          "internalType": "address",
          "name": "operator",
          "type": "address"
        },
        {
          "internalType": "bool",
          "name": "approved",
          "type": "bool"
        }
      ],
      "name": "setApprovalForAll",
      "outputs": [],
      "stateMutability": "nonpayable",
      "type": "function"
    },
    {
      "inputs": [
        {
          "internalType": "uint256",
          "name": "_price",
          "type": "uint256"
        }
      ],
      "name": "setListingPrice",
      "outputs": [],
      "stateMutability": "nonpayable",
      "type": "function"
    },
    {
      "inputs": [
        {
          "internalType": "bytes4",
          "name": "interfaceId",
          "type": "bytes4"
        }
      ],
      "name": "supportsInterface",
      "outputs": [
        {
          "internalType": "bool",
          "name": "",
          "type": "bool"
        }
      ],
      "stateMutability": "view",
      "type": "function"
    },
    {
      "inputs": [],
      "name": "symbol",
      "outputs": [
        {
          "internalType": "string",
          "name": "",
          "type": "string"
        }
      ],
      "stateMutability": "view",
      "type": "function"
    },
    {
      "inputs": [
        {
          "internalType": "uint256",
          "name": "tokenId",
          "type": "uint256"
        }
      ],
      "name": "tokenURI",
      "outputs": [
        {
          "internalType": "string",
          "name": "",
          "type": "string"
        }
      ],
      "stateMutability": "view",
      "type": "function"
    },
    {
      "inputs": [
        {
          "internalType": "address",
          "name": "from",
          "type": "address"
        },
        {
          "internalType": "address",
          "name": "to",
          "type": "address"
        },
        {
          "internalType": "uint256",
          "name": "tokenId",
          "type": "uint256"
        }
      ],
      "name": "transferFrom",
      "outputs": [],
      "stateMutability": "nonpayable",
      "type": "function"
    }
  ],
  "bytecode": "0x608060405265b5e620f480006009553480156200001b57600080fd5b50604051620037e5380380620037e58339810160408190526200003e916200016d565b604080518082018252600e81526d41756374696f6e20546f6b656e7360901b602080830191825283518085019094526002845261105560f21b9084015281519192916200008e91600091620000c7565b508051620000a4906001906020840190620000c7565b5050600160065550600880546001600160a01b03191633179055600a55620001c4565b828054620000d59062000187565b90600052602060002090601f016020900481019282620000f9576000855562000144565b82601f106200011457805160ff191683800117855562000144565b8280016001018555821562000144579182015b828111156200014457825182559160200191906001019062000127565b506200015292915062000156565b5090565b5b8082111562000152576000815560010162000157565b6000602082840312156200018057600080fd5b5051919050565b600181811c908216806200019c57607f821691505b60208210811415620001be57634e487b7160e01b600052602260045260246000fd5b50919050565b61361180620001d46000396000f3fe6080604052600436106101665760003560e01c80637b154140116100d1578063b3de019c1161008a578063c87b56dd11610064578063c87b56dd14610432578063db0bd5c914610452578063e985e9c514610467578063f5a06acf146104b057600080fd5b8063b3de019c146103d0578063b88d4fde146103f0578063bf65a3331461041057600080fd5b80637b154140146103285780637c726b691461034857806395d89b41146103685780639979ef451461037d578063a22cb46514610390578063a923f18c146103b057600080fd5b806342842e0e1161012357806342842e0e1461025b5780634fa7b5071461027b5780636352211e146102a857806370a08231146102c857806375b6a06e146102e857806378bd7935146102fb57600080fd5b806301ffc9a71461016b57806306fdde03146101a0578063081812fc146101c2578063095ea7b3146101fa57806312e855851461021c57806323b872dd1461023b575b600080fd5b34801561017757600080fd5b5061018b610186366004612d8c565b6104c3565b60405190151581526020015b60405180910390f35b3480156101ac57600080fd5b506101b5610515565b6040516101979190612e01565b3480156101ce57600080fd5b506101e26101dd366004612e14565b6105a7565b6040516001600160a01b039091168152602001610197565b34801561020657600080fd5b5061021a610215366004612e49565b6105ce565b005b34801561022857600080fd5b506009545b604051908152602001610197565b34801561024757600080fd5b5061021a610256366004612e73565b6106e9565b34801561026757600080fd5b5061021a610276366004612e73565b61071a565b34801561028757600080fd5b5061029b610296366004612e14565b610735565b6040516101979190612eaf565b3480156102b457600080fd5b506101e26102c3366004612e14565b6107e7565b3480156102d457600080fd5b5061022d6102e3366004612f2a565b610847565b61021a6102f6366004612ff1565b6108cd565b34801561030757600080fd5b5061031b610316366004612e14565b610bea565b6040516101979190613181565b34801561033457600080fd5b5061021a610343366004613194565b610eaa565b34801561035457600080fd5b5061021a610363366004612e14565b61110b565b34801561037457600080fd5b506101b561113a565b61021a61038b366004612e14565b611149565b34801561039c57600080fd5b5061021a6103ab3660046131c6565b61137a565b3480156103bc57600080fd5b5061021a6103cb3660046131f9565b611389565b3480156103dc57600080fd5b5061021a6103eb366004613194565b611504565b3480156103fc57600080fd5b5061021a61040b366004613247565b611603565b34801561041c57600080fd5b50610425611635565b60405161019791906132c3565b34801561043e57600080fd5b506101b561044d366004612e14565b6119e3565b34801561045e57600080fd5b50610425611a57565b34801561047357600080fd5b5061018b610482366004613325565b6001600160a01b03918216600090815260056020908152604080832093909416825291909152205460ff1690565b61021a6104be366004612e14565b611e02565b60006001600160e01b031982166380ac58cd60e01b14806104f457506001600160e01b03198216635b5e139f60e01b145b8061050f57506301ffc9a760e01b6001600160e01b03198316145b92915050565b6060600080546105249061334f565b80601f01602080910402602001604051908101604052809291908181526020018280546105509061334f565b801561059d5780601f106105725761010080835404028352916020019161059d565b820191906000526020600020905b81548152906001019060200180831161058057829003601f168201915b5050505050905090565b60006105b282612076565b506000908152600460205260409020546001600160a01b031690565b60006105d9826107e7565b9050806001600160a01b0316836001600160a01b0316141561064c5760405162461bcd60e51b815260206004820152602160248201527f4552433732313a20617070726f76616c20746f2063757272656e74206f776e656044820152603960f91b60648201526084015b60405180910390fd5b336001600160a01b038216148061066857506106688133610482565b6106da5760405162461bcd60e51b815260206004820152603d60248201527f4552433732313a20617070726f76652063616c6c6572206973206e6f7420746f60448201527f6b656e206f776e6572206f7220617070726f76656420666f7220616c6c0000006064820152608401610643565b6106e483836120d5565b505050565b6106f33382612143565b61070f5760405162461bcd60e51b81526004016106439061338a565b6106e48383836121c2565b6106e483838360405180602001604052806000815250611603565b6060600d6000838152602001908152602001600020805480602002602001604051908101604052809291908181526020016000905b828210156107dc5760008481526020908190206040805160a0810182526004860290920180546001600160a01b03168352600180820154848601526002820154928401929092526003015460ff808216151560608501526101009091041615156080830152908352909201910161076a565b505050509050919050565b6000818152600260205260408120546001600160a01b03168061050f5760405162461bcd60e51b8152602060048201526018602482015277115490cdcc8c4e881a5b9d985b1a59081d1bdad95b88125160421b6044820152606401610643565b60006001600160a01b0382166108b15760405162461bcd60e51b815260206004820152602960248201527f4552433732313a2061646472657373207a65726f206973206e6f7420612076616044820152683634b21037bbb732b960b91b6064820152608401610643565b506001600160a01b031660009081526003602052604090205490565b6108d5612333565b600081116109385760405162461bcd60e51b815260206004820152602a60248201527f53616c6573207072696365206d7573742062652067726561746572207468616e60448201526910181032ba3432b9399760b11b6064820152608401610643565b6009543410156109995760405162461bcd60e51b815260206004820152602660248201527f5072696365206d75737420626520757020746f20746865206c697374696e6720604482015265383934b1b29760d11b6064820152608401610643565b6109a161238d565b6109e45760405162461bcd60e51b815260206004820152601460248201527321b7bab632103737ba1036b4b73a103a37b5b2b760611b6044820152606401610643565b60006109ef60075490565b90506109f9612bf9565b60608101829052858152602081018590526040810184905260e08101839052610a2560008080806123bc565b610180820152336080820181905260a08201526000828152600b60209081526040909120825180518493610a5d928492910190612c82565b506020828101518051610a769260018501920190612c82565b5060408201518051610a92916002840191602090910190612c82565b506060820151600382015560808201516004820180546001600160a01b03199081166001600160a01b039384161790915560a0840151600584018054831691841691909117905560c084015160068401805490921690831617905560e08301516007830155610100808401516008808501805461012088015161014089015161ffff1990921694151561ff001916949094179315159094029290921762ff00001916620100009315159390930292909217905561016084015160098085019190915561018090940151600a909301929092556000858152600c60205260409020805460ff1916600117905590549154610b8e929091169061241e565b604080513381526000602082018190528183018690526060820152905183917fa693a8f68fe4df789541ddd1b84d32ccaea90adddcc88406b4bbbf6466328d3c919081900360800190a25050610be46001600655565b50505050565b610bf2612bf9565b6000828152600c602052604090205460ff16610c505760405162461bcd60e51b815260206004820152601860248201527f41756374696f6e6564204974656d206e6f7420666f756e6400000000000000006044820152606401610643565b6000828152600b60205260409081902081516101a08101909252805482908290610c799061334f565b80601f0160208091040260200160405190810160405280929190818152602001828054610ca59061334f565b8015610cf25780601f10610cc757610100808354040283529160200191610cf2565b820191906000526020600020905b815481529060010190602001808311610cd557829003601f168201915b50505050508152602001600182018054610d0b9061334f565b80601f0160208091040260200160405190810160405280929190818152602001828054610d379061334f565b8015610d845780601f10610d5957610100808354040283529160200191610d84565b820191906000526020600020905b815481529060010190602001808311610d6757829003601f168201915b50505050508152602001600282018054610d9d9061334f565b80601f0160208091040260200160405190810160405280929190818152602001828054610dc99061334f565b8015610e165780601f10610deb57610100808354040283529160200191610e16565b820191906000526020600020905b815481529060010190602001808311610df957829003601f168201915b50505091835250506003820154602082015260048201546001600160a01b0390811660408301526005830154811660608301526006830154166080820152600782015460a0820152600882015460ff808216151560c08401526101008083048216151560e085015262010000909204161515908201526009820154610120820152600a909101546101409091015292915050565b6000828152600b60205260408120600a015490610ec9908080806123bc565b11610f0b5760405162461bcd60e51b815260206004820152601260248201527141756374696f6e207374696c6c204c69766560701b6044820152606401610643565b6000828152600b60205260409020600601546001600160a01b03163314610f6d5760405162461bcd60e51b81526020600482015260166024820152752cb7ba9030b932903737ba103a3432903bb4b73732b960511b6044820152606401610643565b6000828152600d6020526040902080546001919083908110610f9157610f916133d7565b60009182526020808320600492830201600301805461ff0019166101009515159590950294909417909355848252600b909252604081206007810154928101546006820180546001600160a01b031916905560088201805461ffff1916600117905560099091018290556001600160a01b031690611011908080806123bc565b6000858152600b60205260408120600a9081019290925590546064906110379085613403565b6110419190613422565b6000868152600b6020526040902060050154909150611072906001600160a01b031661106d8386613444565b61241e565b61107c828261241e565b6040516323b872dd60e01b8152306004820181905233602483015260448201879052906323b872dd90606401600060405180830381600087803b1580156110c257600080fd5b505af11580156110d6573d6000803e3d6000fd5b5050506000868152600b6020526040902060050180546001600160a01b031916331790555061110485612485565b5050505050565b6008546001600160a01b031633146111355760405162461bcd60e51b81526004016106439061345b565b600955565b6060600180546105249061334f565b6000818152600b60205260409020600701543410156111a05760405162461bcd60e51b8152602060048201526013602482015272125b9cdd59999a58da595b9d08105b5bdd5b9d606a1b6044820152606401610643565b6111ae6000806000806123bc565b6000828152600b60205260409020600a0154116112055760405162461bcd60e51b815260206004820152601560248201527441756374696f6e206e6f7420617661696c61626c6560581b6044820152606401610643565b6000818152600b602052604090206008015462010000900460ff1661126c5760405162461bcd60e51b815260206004820152601860248201527f41756374696f6e206f6e6c7920666f722062696464696e6700000000000000006044820152606401610643565b6040805160a08101825260009181018290526060810182905260808101829052338152346020820152906112a2908080806123bc565b60408083019182526000848152600d6020908152828220805460018181018355918452828420875160049092020180546001600160a01b039092166001600160a01b0319909216919091178155828701519181019190915593516002850155606085015160039094018054608087015115156101000261ff00199615159690961661ffff199091161794909417909355848152600b909252812060090180549161134b83613488565b9091555050506000908152600b6020526040902034600782015560060180546001600160a01b03191633179055565b611385338383612666565b5050565b6000868152600b60205260409020600501546001600160a01b031633146113c25760405162461bcd60e51b81526004016106439061345b565b6000868152600b6020526040902060090154156114215760405162461bcd60e51b815260206004820152601f60248201527f57696e6e65722073686f756c6420636c61696d207072697a65206669727374006044820152606401610643565b6000868152600b6020526040902060080154610100900460ff166114a95761144a30600161137a565b6040516323b872dd60e01b8152336004820152306024820181905260448201889052906323b872dd90606401600060405180830381600087803b15801561149057600080fd5b505af11580156114a4573d6000803e3d6000fd5b505050505b6000868152600b6020526040812060098101919091556008018054861515620100000262ffffff19909116176101001790556114e7848484846123bc565b6000968752600b6020526040909620600a01959095555050505050565b6000828152600b60205260409020600501546001600160a01b0316331461153d5760405162461bcd60e51b81526004016106439061345b565b6000828152600b60205260408120600a01549061155c908080806123bc565b1161159e5760405162461bcd60e51b815260206004820152601260248201527141756374696f6e207374696c6c204c69766560701b6044820152606401610643565b600081116115ee5760405162461bcd60e51b815260206004820152601f60248201527f5072696365206d7573742062652067726561746572207468616e207a65726f006044820152606401610643565b6000918252600b602052604090912060070155565b61160d3383612143565b6116295760405162461bcd60e51b81526004016106439061338a565b610be484848484612735565b6060600061164260075490565b90506000805b828110156116a35733600b60006116608460016134a3565b81526020810191909152604001600020600501546001600160a01b03161415611691578161168d81613488565b9250505b8061169b81613488565b915050611648565b508067ffffffffffffffff8111156116bd576116bd612f45565b6040519080825280602002602001820160405280156116f657816020015b6116e3612bf9565b8152602001906001900390816116db5790505b5092506000805b838110156119dc5733600b60006117158460016134a3565b81526020810191909152604001600020600501546001600160a01b031614156119ca57600b60006117478360016134a3565b8152602001908152602001600020604051806101a00160405290816000820180546117719061334f565b80601f016020809104026020016040519081016040528092919081815260200182805461179d9061334f565b80156117ea5780601f106117bf576101008083540402835291602001916117ea565b820191906000526020600020905b8154815290600101906020018083116117cd57829003601f168201915b505050505081526020016001820180546118039061334f565b80601f016020809104026020016040519081016040528092919081815260200182805461182f9061334f565b801561187c5780601f106118515761010080835404028352916020019161187c565b820191906000526020600020905b81548152906001019060200180831161185f57829003601f168201915b505050505081526020016002820180546118959061334f565b80601f01602080910402602001604051908101604052809291908181526020018280546118c19061334f565b801561190e5780601f106118e35761010080835404028352916020019161190e565b820191906000526020600020905b8154815290600101906020018083116118f157829003601f168201915b50505091835250506003820154602082015260048201546001600160a01b0390811660408301526005830154811660608301526006830154166080820152600782015460a0820152600882015460ff808216151560c08401526101008083048216151560e085015262010000909204161515908201526009820154610120820152600a909101546101409091015285518690849081106119b0576119b06133d7565b602002602001018190525081806119c690613488565b9250505b806119d481613488565b9150506116fd565b5050505090565b60606119ee82612076565b6000611a0560408051602081019091526000815290565b90506000815111611a255760405180602001604052806000815250611a50565b80611a2f84612768565b604051602001611a409291906134bb565b6040516020818303038152906040525b9392505050565b60606000611a6460075490565b90506000805b82811015611ac757611a806000806000806123bc565b600b6000611a8f8460016134a3565b8152602001908152602001600020600a01541115611ab55781611ab181613488565b9250505b80611abf81613488565b915050611a6a565b508067ffffffffffffffff811115611ae157611ae1612f45565b604051908082528060200260200182016040528015611b1a57816020015b611b07612bf9565b815260200190600190039081611aff5790505b5092506000805b838110156119dc57611b376000806000806123bc565b600b6000611b468460016134a3565b8152602001908152602001600020600a01541115611df057600b6000611b6d8360016134a3565b8152602001908152602001600020604051806101a0016040529081600082018054611b979061334f565b80601f0160208091040260200160405190810160405280929190818152602001828054611bc39061334f565b8015611c105780601f10611be557610100808354040283529160200191611c10565b820191906000526020600020905b815481529060010190602001808311611bf357829003601f168201915b50505050508152602001600182018054611c299061334f565b80601f0160208091040260200160405190810160405280929190818152602001828054611c559061334f565b8015611ca25780601f10611c7757610100808354040283529160200191611ca2565b820191906000526020600020905b815481529060010190602001808311611c8557829003601f168201915b50505050508152602001600282018054611cbb9061334f565b80601f0160208091040260200160405190810160405280929190818152602001828054611ce79061334f565b8015611d345780601f10611d0957610100808354040283529160200191611d34565b820191906000526020600020905b815481529060010190602001808311611d1757829003601f168201915b50505091835250506003820154602082015260048201546001600160a01b0390811660408301526005830154811660608301526006830154166080820152600782015460a0820152600882015460ff808216151560c08401526101008083048216151560e085015262010000909204161515908201526009820154610120820152600a90910154610140909101528551869084908110611dd657611dd66133d7565b60200260200101819052508180611dec90613488565b9250505b80611dfa81613488565b915050611b21565b611e0a612333565b6000818152600b6020526040902060070154341015611e615760405162461bcd60e51b8152602060048201526013602482015272125b9cdd59999a58da595b9d08105b5bdd5b9d606a1b6044820152606401610643565b611e6f6000806000806123bc565b6000828152600b60205260409020600a015411611ec65760405162461bcd60e51b815260206004820152601560248201527441756374696f6e206e6f7420617661696c61626c6560581b6044820152606401610643565b6000818152600b602052604090206008015462010000900460ff1615611f2e5760405162461bcd60e51b815260206004820152601960248201527f41756374696f6e206f6e6c7920666f72207075726368617365000000000000006044820152606401610643565b6000818152600b60205260408120600481015460088201805461ffff1916600117905560099091018290556001600160a01b031690611f6f908080806123bc565b6000838152600b60205260408120600a908101929092559054606490611f959034613403565b611f9f9190613422565b6000848152600b6020526040902060050154909150611fcb906001600160a01b031661106d8334613444565b611fd5828261241e565b6000838152600b6020526040908190206003015490516323b872dd60e01b8152306004820181905233602483015260448201929092526323b872dd90606401600060405180830381600087803b15801561202e57600080fd5b505af1158015612042573d6000803e3d6000fd5b5050506000848152600b6020526040902060050180546001600160a01b0319163317905550612073915061247e9050565b50565b6000818152600260205260409020546001600160a01b03166120735760405162461bcd60e51b8152602060048201526018602482015277115490cdcc8c4e881a5b9d985b1a59081d1bdad95b88125160421b6044820152606401610643565b600081815260046020526040902080546001600160a01b0319166001600160a01b038416908117909155819061210a826107e7565b6001600160a01b03167f8c5be1e5ebec7d5bd14f71427d1e84f3dd0314c0f7b2291e5b200ac8c7c3b92560405160405180910390a45050565b60008061214f836107e7565b9050806001600160a01b0316846001600160a01b0316148061219657506001600160a01b0380821660009081526005602090815260408083209388168352929052205460ff165b806121ba5750836001600160a01b03166121af846105a7565b6001600160a01b0316145b949350505050565b826001600160a01b03166121d5826107e7565b6001600160a01b0316146121fb5760405162461bcd60e51b8152600401610643906134ea565b6001600160a01b03821661225d5760405162461bcd60e51b8152602060048201526024808201527f4552433732313a207472616e7366657220746f20746865207a65726f206164646044820152637265737360e01b6064820152608401610643565b61226a8383836001612805565b826001600160a01b031661227d826107e7565b6001600160a01b0316146122a35760405162461bcd60e51b8152600401610643906134ea565b600081815260046020908152604080832080546001600160a01b03199081169091556001600160a01b0387811680865260038552838620805460001901905590871680865283862080546001019055868652600290945282852080549092168417909155905184937fddf252ad1be2c89b69c2b068fc378daa952ba7f163c4a11628f55a4df523b3ef91a4505050565b600260065414156123865760405162461bcd60e51b815260206004820152601f60248201527f5265656e7472616e637947756172643a207265656e7472616e742063616c6c006044820152606401610643565b6002600655565b600061239d600780546001019055565b60006123a860075490565b90506123b4338261288d565b600191505090565b60006123cb8262015180613403565b6123d784610e10613403565b6123e286603c613403565b6123ed886001613403565b6123f790426134a3565b61240191906134a3565b61240b91906134a3565b61241591906134a3565b95945050505050565b6000826001600160a01b03168260405160006040518083038185875af1925050503d806000811461246b576040519150601f19603f3d011682016040523d82523d6000602084013e612470565b606091505b50509050806106e457600080fd5b6001600655565b60005b6000828152600d602052604090205481101561264e576000828152600d602052604090208054339190839081106124c1576124c16133d7565b60009182526020909120600490910201546001600160a01b0316146125ad576000828152600d6020526040902080546001919083908110612504576125046133d7565b906000526020600020906004020160030160006101000a81548160ff0219169083151502179055506125a8600d60008481526020019081526020016000208281548110612553576125536133d7565b60009182526020808320600490920290910154858352600d909152604090912080546001600160a01b039092169184908110612591576125916133d7565b90600052602060002090600402016001015461241e565b6125fa565b6000828152600d60205260409020805460019190839081106125d1576125d16133d7565b906000526020600020906004020160030160016101000a81548160ff0219169083151502179055505b6126086000806000806123bc565b6000838152600d60205260409020805483908110612628576126286133d7565b60009182526020909120600260049092020101558061264681613488565b915050612488565b506000818152600d6020526040812061207391612d06565b816001600160a01b0316836001600160a01b031614156126c85760405162461bcd60e51b815260206004820152601960248201527f4552433732313a20617070726f766520746f2063616c6c6572000000000000006044820152606401610643565b6001600160a01b03838116600081815260056020908152604080832094871680845294825291829020805460ff191686151590811790915591519182527f17307eab39ab6107e8899845ad3d59bd9653f200f220920489ca2b5937696c31910160405180910390a3505050565b6127408484846121c2565b61274c84848484612a26565b610be45760405162461bcd60e51b81526004016106439061352f565b6060600061277583612b21565b600101905060008167ffffffffffffffff81111561279557612795612f45565b6040519080825280601f01601f1916602001820160405280156127bf576020820181803683370190505b5090508181016020015b600019016f181899199a1a9b1b9c1cb0b131b232b360811b600a86061a8153600a85049450846127f8576127fd565b6127c9565b509392505050565b6001811115610be4576001600160a01b0384161561284b576001600160a01b03841660009081526003602052604081208054839290612845908490613444565b90915550505b6001600160a01b03831615610be4576001600160a01b038316600090815260036020526040812080548392906128829084906134a3565b909155505050505050565b6001600160a01b0382166128e35760405162461bcd60e51b815260206004820181905260248201527f4552433732313a206d696e7420746f20746865207a65726f20616464726573736044820152606401610643565b6000818152600260205260409020546001600160a01b0316156129485760405162461bcd60e51b815260206004820152601c60248201527f4552433732313a20746f6b656e20616c7265616479206d696e746564000000006044820152606401610643565b612956600083836001612805565b6000818152600260205260409020546001600160a01b0316156129bb5760405162461bcd60e51b815260206004820152601c60248201527f4552433732313a20746f6b656e20616c7265616479206d696e746564000000006044820152606401610643565b6001600160a01b038216600081815260036020908152604080832080546001019055848352600290915280822080546001600160a01b0319168417905551839291907fddf252ad1be2c89b69c2b068fc378daa952ba7f163c4a11628f55a4df523b3ef908290a45050565b60006001600160a01b0384163b15612b1957604051630a85bd0160e11b81526001600160a01b0385169063150b7a0290612a6a903390899088908890600401613581565b6020604051808303816000875af1925050508015612aa5575060408051601f3d908101601f19168201909252612aa2918101906135be565b60015b612aff573d808015612ad3576040519150601f19603f3d011682016040523d82523d6000602084013e612ad8565b606091505b508051612af75760405162461bcd60e51b81526004016106439061352f565b805181602001fd5b6001600160e01b031916630a85bd0160e11b1490506121ba565b5060016121ba565b60008072184f03e93ff9f4daa797ed6e38ed64bf6a1f0160401b8310612b605772184f03e93ff9f4daa797ed6e38ed64bf6a1f0160401b830492506040015b6d04ee2d6d415b85acef81000000008310612b8c576d04ee2d6d415b85acef8100000000830492506020015b662386f26fc100008310612baa57662386f26fc10000830492506010015b6305f5e1008310612bc2576305f5e100830492506008015b6127108310612bd657612710830492506004015b60648310612be8576064830492506002015b600a831061050f5760010192915050565b604051806101a001604052806060815260200160608152602001606081526020016000815260200160006001600160a01b0316815260200160006001600160a01b0316815260200160006001600160a01b031681526020016000815260200160001515815260200160001515815260200160001515815260200160008152602001600081525090565b828054612c8e9061334f565b90600052602060002090601f016020900481019282612cb05760008555612cf6565b82601f10612cc957805160ff1916838001178555612cf6565b82800160010185558215612cf6579182015b82811115612cf6578251825591602001919060010190612cdb565b50612d02929150612d27565b5090565b50805460008255600402906000526020600020908101906120739190612d3c565b5b80821115612d025760008155600101612d28565b5b80821115612d025780546001600160a01b0319168155600060018201819055600282015560038101805461ffff19169055600401612d3d565b6001600160e01b03198116811461207357600080fd5b600060208284031215612d9e57600080fd5b8135611a5081612d76565b60005b83811015612dc4578181015183820152602001612dac565b83811115610be45750506000910152565b60008151808452612ded816020860160208601612da9565b601f01601f19169290920160200192915050565b602081526000611a506020830184612dd5565b600060208284031215612e2657600080fd5b5035919050565b80356001600160a01b0381168114612e4457600080fd5b919050565b60008060408385031215612e5c57600080fd5b612e6583612e2d565b946020939093013593505050565b600080600060608486031215612e8857600080fd5b612e9184612e2d565b9250612e9f60208501612e2d565b9150604084013590509250925092565b602080825282518282018190526000919060409081850190868401855b82811015612f1d57815180516001600160a01b031685528681015187860152858101518686015260608082015115159086015260809081015115159085015260a09093019290850190600101612ecc565b5091979650505050505050565b600060208284031215612f3c57600080fd5b611a5082612e2d565b634e487b7160e01b600052604160045260246000fd5b600067ffffffffffffffff80841115612f7657612f76612f45565b604051601f8501601f19908116603f01168101908282118183101715612f9e57612f9e612f45565b81604052809350858152868686011115612fb757600080fd5b858560208301376000602087830101525050509392505050565b600082601f830112612fe257600080fd5b611a5083833560208501612f5b565b6000806000806080858703121561300757600080fd5b843567ffffffffffffffff8082111561301f57600080fd5b61302b88838901612fd1565b9550602087013591508082111561304157600080fd5b61304d88838901612fd1565b9450604087013591508082111561306357600080fd5b5061307087828801612fd1565b949793965093946060013593505050565b60006101a0825181855261309782860182612dd5565b915050602083015184820360208601526130b18282612dd5565b915050604083015184820360408601526130cb8282612dd5565b9150506060830151606085015260808301516130f260808601826001600160a01b03169052565b5060a083015161310d60a08601826001600160a01b03169052565b5060c083015161312860c08601826001600160a01b03169052565b5060e083015160e0850152610100808401516131478287018215159052565b5050610120838101511515908501526101408084015115159085015261016080840151908501526101809283015192909301919091525090565b602081526000611a506020830184613081565b600080604083850312156131a757600080fd5b50508035926020909101359150565b80358015158114612e4457600080fd5b600080604083850312156131d957600080fd5b6131e283612e2d565b91506131f0602084016131b6565b90509250929050565b60008060008060008060c0878903121561321257600080fd5b86359550613222602088016131b6565b95989597505050506040840135936060810135936080820135935060a0909101359150565b6000806000806080858703121561325d57600080fd5b61326685612e2d565b935061327460208601612e2d565b925060408501359150606085013567ffffffffffffffff81111561329757600080fd5b8501601f810187136132a857600080fd5b6132b787823560208401612f5b565b91505092959194509250565b6000602080830181845280855180835260408601915060408160051b870101925083870160005b8281101561331857603f19888603018452613306858351613081565b945092850192908501906001016132ea565b5092979650505050505050565b6000806040838503121561333857600080fd5b61334183612e2d565b91506131f060208401612e2d565b600181811c9082168061336357607f821691505b6020821081141561338457634e487b7160e01b600052602260045260246000fd5b50919050565b6020808252602d908201527f4552433732313a2063616c6c6572206973206e6f7420746f6b656e206f776e6560408201526c1c881bdc88185c1c1c9bdd9959609a1b606082015260800190565b634e487b7160e01b600052603260045260246000fd5b634e487b7160e01b600052601160045260246000fd5b600081600019048311821515161561341d5761341d6133ed565b500290565b60008261343f57634e487b7160e01b600052601260045260246000fd5b500490565b600082821015613456576134566133ed565b500390565b602080825260139082015272556e617574686f72697a656420656e7469747960681b604082015260600190565b600060001982141561349c5761349c6133ed565b5060010190565b600082198211156134b6576134b66133ed565b500190565b600083516134cd818460208801612da9565b8351908301906134e1818360208801612da9565b01949350505050565b60208082526025908201527f4552433732313a207472616e736665722066726f6d20696e636f72726563742060408201526437bbb732b960d91b606082015260800190565b60208082526032908201527f4552433732313a207472616e7366657220746f206e6f6e20455243373231526560408201527131b2b4bb32b91034b6b83632b6b2b73a32b960711b606082015260800190565b6001600160a01b03858116825284166020820152604081018390526080606082018190526000906135b490830184612dd5565b9695505050505050565b6000602082840312156135d057600080fd5b8151611a5081612d7656fea26469706673582212200b6601ec5348c99138547a6ce1e9c2de4d842ef9e4beade207c359a78b36b9f764736f6c634300080b0033",
  "linkReferences": {},
  "deployedLinkReferences": {}
}